{
  "contractName": "AuthWallet",
  "abi": [
    {
      "inputs": [
        {
          "internalType": "address",
          "name": "",
          "type": "address"
        }
      ],
      "name": "isCreated",
      "outputs": [
        {
          "internalType": "bool",
          "name": "",
          "type": "bool"
        }
      ],
      "stateMutability": "view",
      "type": "function",
      "constant": true
    },
    {
      "inputs": [
        {
          "internalType": "address",
          "name": "",
          "type": "address"
        }
      ],
      "name": "wallet_list",
      "outputs": [
        {
          "internalType": "address",
          "name": "owner",
          "type": "address"
        },
        {
          "internalType": "string",
          "name": "personalDetails",
          "type": "string"
        },
        {
          "internalType": "bool",
          "name": "digitalIdCreated",
          "type": "bool"
        }
      ],
      "stateMutability": "view",
      "type": "function",
      "constant": true
    },
    {
      "inputs": [],
      "name": "createWallet",
      "outputs": [],
      "stateMutability": "nonpayable",
      "type": "function"
    },
    {
      "inputs": [
        {
          "internalType": "string",
          "name": "_personalDetails",
          "type": "string"
        }
      ],
      "name": "setPersonalDetails",
      "outputs": [],
      "stateMutability": "nonpayable",
      "type": "function"
    },
    {
      "inputs": [
        {
          "internalType": "string",
          "name": "_bankId",
          "type": "string"
        }
      ],
      "name": "approveBank",
      "outputs": [],
      "stateMutability": "nonpayable",
      "type": "function"
    },
    {
      "inputs": [
        {
          "internalType": "string",
          "name": "_bankId",
          "type": "string"
        }
      ],
      "name": "rejectBank",
      "outputs": [],
      "stateMutability": "nonpayable",
      "type": "function"
    },
    {
      "inputs": [],
      "name": "sendCreadentials",
      "outputs": [
        {
          "internalType": "string",
          "name": "",
          "type": "string"
        }
      ],
      "stateMutability": "view",
      "type": "function",
      "constant": true
    }
  ],
  "bytecode": "0x608060405234801561001057600080fd5b506113a7806100206000396000f3fe608060405234801561001057600080fd5b506004361061007d5760003560e01c8063af484bce1161005b578063af484bce146100c4578063e75a790c146100e2578063f8027296146100fe578063facb74421461012e5761007d565b806311ebbf2414610082578063311c56161461008c5780633ea0c2c2146100a8575b600080fd5b61008a610160565b005b6100a660048036038101906100a19190610f5f565b6102c6565b005b6100c260048036038101906100bd9190610f5f565b61052f565b005b6100cc610798565b6040516100d99190611030565b60405180910390f35b6100fc60048036038101906100f79190610f5f565b610a54565b005b610118600480360381019061011391906110b0565b610c63565b60405161012591906110f8565b60405180910390f35b610148600480360381019061014391906110b0565b610c83565b60405161015793929190611122565b60405180910390f35b6000803373ffffffffffffffffffffffffffffffffffffffff1673ffffffffffffffffffffffffffffffffffffffff16815260200190815260200160002060009054906101000a900460ff16156101ec576040517f08c379a00000000000000000000000000000000000000000000000000000000081526004016101e3906111ac565b60405180910390fd5b60016000803373ffffffffffffffffffffffffffffffffffffffff1673ffffffffffffffffffffffffffffffffffffffff16815260200190815260200160002060006101000a81548160ff02191690831515021790555033600160003373ffffffffffffffffffffffffffffffffffffffff1673ffffffffffffffffffffffffffffffffffffffff16815260200190815260200160002060000160006101000a81548173ffffffffffffffffffffffffffffffffffffffff021916908373ffffffffffffffffffffffffffffffffffffffff160217905550565b6000803373ffffffffffffffffffffffffffffffffffffffff1673ffffffffffffffffffffffffffffffffffffffff16815260200190815260200160002060009054906101000a900460ff16610351576040517f08c379a000000000000000000000000000000000000000000000000000000000815260040161034890611218565b60405180910390fd5b3373ffffffffffffffffffffffffffffffffffffffff16600160003373ffffffffffffffffffffffffffffffffffffffff1673ffffffffffffffffffffffffffffffffffffffff16815260200190815260200160002060000160009054906101000a900473ffffffffffffffffffffffffffffffffffffffff1673ffffffffffffffffffffffffffffffffffffffff1614610421576040517f08c379a000000000000000000000000000000000000000000000000000000000815260040161041890611284565b60405180910390fd5b600160003373ffffffffffffffffffffffffffffffffffffffff1673ffffffffffffffffffffffffffffffffffffffff16815260200190815260200160002060040160009054906101000a900460ff166104b0576040517f08c379a00000000000000000000000000000000000000000000000000000000081526004016104a7906112f0565b60405180910390fd5b600160003373ffffffffffffffffffffffffffffffffffffffff1673ffffffffffffffffffffffffffffffffffffffff1681526020019081526020016000206003018190806001815401808255809150506001900390600052602060002001600090919091909150908051906020019061052b929190610d62565b5050565b6000803373ffffffffffffffffffffffffffffffffffffffff1673ffffffffffffffffffffffffffffffffffffffff16815260200190815260200160002060009054906101000a900460ff166105ba576040517f08c379a00000000000000000000000000000000000000000000000000000000081526004016105b190611218565b60405180910390fd5b3373ffffffffffffffffffffffffffffffffffffffff16600160003373ffffffffffffffffffffffffffffffffffffffff1673ffffffffffffffffffffffffffffffffffffffff16815260200190815260200160002060000160009054906101000a900473ffffffffffffffffffffffffffffffffffffffff1673ffffffffffffffffffffffffffffffffffffffff161461068a576040517f08c379a000000000000000000000000000000000000000000000000000000000815260040161068190611284565b60405180910390fd5b600160003373ffffffffffffffffffffffffffffffffffffffff1673ffffffffffffffffffffffffffffffffffffffff16815260200190815260200160002060040160009054906101000a900460ff16610719576040517f08c379a0000000000000000000000000000000000000000000000000000000008152600401610710906112f0565b60405180910390fd5b600160003373ffffffffffffffffffffffffffffffffffffffff1673ffffffffffffffffffffffffffffffffffffffff16815260200190815260200160002060020181908060018154018082558091505060019003906000526020600020016000909190919091509080519060200190610794929190610d62565b5050565b60606000803373ffffffffffffffffffffffffffffffffffffffff1673ffffffffffffffffffffffffffffffffffffffff16815260200190815260200160002060009054906101000a900460ff16610825576040517f08c379a000000000000000000000000000000000000000000000000000000000815260040161081c90611218565b60405180910390fd5b3373ffffffffffffffffffffffffffffffffffffffff16600160003373ffffffffffffffffffffffffffffffffffffffff1673ffffffffffffffffffffffffffffffffffffffff16815260200190815260200160002060000160009054906101000a900473ffffffffffffffffffffffffffffffffffffffff1673ffffffffffffffffffffffffffffffffffffffff16146108f5576040517f08c379a00000000000000000000000000000000000000000000000000000000081526004016108ec90611284565b60405180910390fd5b600160003373ffffffffffffffffffffffffffffffffffffffff1673ffffffffffffffffffffffffffffffffffffffff16815260200190815260200160002060040160009054906101000a900460ff16610984576040517f08c379a000000000000000000000000000000000000000000000000000000000815260040161097b906112f0565b60405180910390fd5b600160003373ffffffffffffffffffffffffffffffffffffffff1673ffffffffffffffffffffffffffffffffffffffff16815260200190815260200160002060010180546109d19061133f565b80601f01602080910402602001604051908101604052809291908181526020018280546109fd9061133f565b8015610a4a5780601f10610a1f57610100808354040283529160200191610a4a565b820191906000526020600020905b815481529060010190602001808311610a2d57829003601f168201915b5050505050905090565b6000803373ffffffffffffffffffffffffffffffffffffffff1673ffffffffffffffffffffffffffffffffffffffff16815260200190815260200160002060009054906101000a900460ff16610adf576040517f08c379a0000000000000000000000000000000000000000000000000000000008152600401610ad690611218565b60405180910390fd5b3373ffffffffffffffffffffffffffffffffffffffff16600160003373ffffffffffffffffffffffffffffffffffffffff1673ffffffffffffffffffffffffffffffffffffffff16815260200190815260200160002060000160009054906101000a900473ffffffffffffffffffffffffffffffffffffffff1673ffffffffffffffffffffffffffffffffffffffff1614610baf576040517f08c379a0000000000000000000000000000000000000000000000000000000008152600401610ba690611284565b60405180910390fd5b80600160003373ffffffffffffffffffffffffffffffffffffffff1673ffffffffffffffffffffffffffffffffffffffff1681526020019081526020016000206001019080519060200190610c05929190610d62565b5060018060003373ffffffffffffffffffffffffffffffffffffffff1673ffffffffffffffffffffffffffffffffffffffff16815260200190815260200160002060040160006101000a81548160ff02191690831515021790555050565b60006020528060005260406000206000915054906101000a900460ff1681565b60016020528060005260406000206000915090508060000160009054906101000a900473ffffffffffffffffffffffffffffffffffffffff1690806001018054610ccc9061133f565b80601f0160208091040260200160405190810160405280929190818152602001828054610cf89061133f565b8015610d455780601f10610d1a57610100808354040283529160200191610d45565b820191906000526020600020905b815481529060010190602001808311610d2857829003601f168201915b5050505050908060040160009054906101000a900460ff16905083565b828054610d6e9061133f565b90600052602060002090601f016020900481019282610d905760008555610dd7565b82601f10610da957805160ff1916838001178555610dd7565b82800160010185558215610dd7579182015b82811115610dd6578251825591602001919060010190610dbb565b5b509050610de49190610de8565b5090565b5b80821115610e01576000816000905550600101610de9565b5090565b6000604051905090565b600080fd5b600080fd5b600080fd5b600080fd5b6000601f19601f8301169050919050565b7f4e487b7100000000000000000000000000000000000000000000000000000000600052604160045260246000fd5b610e6c82610e23565b810181811067ffffffffffffffff82111715610e8b57610e8a610e34565b5b80604052505050565b6000610e9e610e05565b9050610eaa8282610e63565b919050565b600067ffffffffffffffff821115610eca57610ec9610e34565b5b610ed382610e23565b9050602081019050919050565b82818337600083830152505050565b6000610f02610efd84610eaf565b610e94565b905082815260208101848484011115610f1e57610f1d610e1e565b5b610f29848285610ee0565b509392505050565b600082601f830112610f4657610f45610e19565b5b8135610f56848260208601610eef565b91505092915050565b600060208284031215610f7557610f74610e0f565b5b600082013567ffffffffffffffff811115610f9357610f92610e14565b5b610f9f84828501610f31565b91505092915050565b600081519050919050565b600082825260208201905092915050565b60005b83811015610fe2578082015181840152602081019050610fc7565b83811115610ff1576000848401525b50505050565b600061100282610fa8565b61100c8185610fb3565b935061101c818560208601610fc4565b61102581610e23565b840191505092915050565b6000602082019050818103600083015261104a8184610ff7565b905092915050565b600073ffffffffffffffffffffffffffffffffffffffff82169050919050565b600061107d82611052565b9050919050565b61108d81611072565b811461109857600080fd5b50565b6000813590506110aa81611084565b92915050565b6000602082840312156110c6576110c5610e0f565b5b60006110d48482850161109b565b91505092915050565b60008115159050919050565b6110f2816110dd565b82525050565b600060208201905061110d60008301846110e9565b92915050565b61111c81611072565b82525050565b60006060820190506111376000830186611113565b81810360208301526111498185610ff7565b905061115860408301846110e9565b949350505050565b7f5573657220616c72656164792065786973740000000000000000000000000000600082015250565b6000611196601283610fb3565b91506111a182611160565b602082019050919050565b600060208201905081810360008301526111c581611189565b9050919050565b7f5573657220646f6573206e6f7420657869737400000000000000000000000000600082015250565b6000611202601383610fb3565b915061120d826111cc565b602082019050919050565b60006020820190508181036000830152611231816111f5565b9050919050565b7f4163636573732064656e69656400000000000000000000000000000000000000600082015250565b600061126e600d83610fb3565b915061127982611238565b602082019050919050565b6000602082019050818103600083015261129d81611261565b9050919050565b7f4e6f206469676974616c20494400000000000000000000000000000000000000600082015250565b60006112da600d83610fb3565b91506112e5826112a4565b602082019050919050565b60006020820190508181036000830152611309816112cd565b9050919050565b7f4e487b7100000000000000000000000000000000000000000000000000000000600052602260045260246000fd5b6000600282049050600182168061135757607f821691505b6020821081141561136b5761136a611310565b5b5091905056fea264697066735822122010d46b53f4d11ef7455c51b744343924783d31e3c2e2c1f0b4194d2d6ddc84af64736f6c634300080b0033",
  "immutableReferences": {},
  "source": "// SPDX-License-Identifier: MIT\r\npragma solidity >=0.4.22 <0.9.0;\r\n\r\n\r\ncontract AuthWallet{\r\n\r\n    struct Wallet{\r\n        address owner;\r\n        string personalDetails;\r\n        string[] approvedBanks;\r\n        string[] rejectedBanks;\r\n        bool digitalIdCreated;\r\n\r\n    }\r\n\r\n    mapping (address => bool) public isCreated; // lookup table of wallets\r\n    mapping (address => Wallet) public wallet_list;\r\n\r\n    modifier onlyOwner {\r\n        require(isCreated[msg.sender], \"User does not exist\"); \r\n        require(wallet_list[msg.sender].owner == msg.sender, \"Access denied\");  //normally this condition can never be rejected\r\n        _;\r\n    }\r\n\r\n    modifier withDigitalId {\r\n        require(wallet_list[msg.sender].digitalIdCreated , \"No digital ID\");  \r\n        _;\r\n    }\r\n\r\n    function createWallet () external{\r\n\r\n        \r\n        require(!isCreated[msg.sender], \"User already exist\");\r\n\r\n        isCreated[msg.sender] = true ;\r\n        wallet_list[msg.sender].owner =  msg.sender;\r\n\r\n    }\r\n\r\n\r\n    function setPersonalDetails(string memory _personalDetails) external onlyOwner{\r\n\r\n\r\n        wallet_list[msg.sender].personalDetails = _personalDetails;\r\n        wallet_list[msg.sender].digitalIdCreated = true ;\r\n\r\n    }\r\n\r\n    function approveBank (string memory _bankId) external onlyOwner withDigitalId{\r\n             \r\n        wallet_list[msg.sender].approvedBanks.push(_bankId);\r\n        \r\n    }\r\n\r\n    function rejectBank (string memory _bankId) external onlyOwner withDigitalId{\r\n             \r\n        wallet_list[msg.sender].rejectedBanks.push(_bankId);\r\n        \r\n    }\r\n\r\n    function sendCreadentials() external view onlyOwner withDigitalId returns(string memory){\r\n\r\n        return  wallet_list[msg.sender].personalDetails;    \r\n    }\r\n\r\n}",
  "sourcePath": "E:\\Web3 Development\\ethereum\\test_auth\\contracts\\AuthWallet.sol",
  "compiler": {
    "name": "solc",
    "version": "0.8.11+commit.d7f03943.Emscripten.clang"
  },
  "schemaVersion": "3.4.4",
  "updatedAt": "2022-11-01T05:42:46.344Z",
  "networkType": "ethereum",
  "devdoc": {
    "kind": "dev",
    "methods": {},
    "version": 1
  },
  "userdoc": {
    "kind": "user",
    "methods": {},
    "version": 1
  }
}