{
  "contractName": "AuthVerifier",
  "abi": [
    {
      "inputs": [],
      "name": "addVerifier",
      "outputs": [],
      "stateMutability": "nonpayable",
      "type": "function"
    },
    {
      "inputs": [],
      "name": "getVerifierExist",
      "outputs": [
        {
          "internalType": "bool",
          "name": "",
          "type": "bool"
        }
      ],
      "stateMutability": "view",
      "type": "function",
      "constant": true
    }
  ],
  "bytecode": "0x608060405234801561001057600080fd5b506102e7806100206000396000f3fe608060405234801561001057600080fd5b50600436106100365760003560e01c8063076c64241461003b578063bc71194314610059575b600080fd5b610043610063565b6040516100509190610219565b60405180910390f35b6100616100b6565b005b60008060003373ffffffffffffffffffffffffffffffffffffffff1673ffffffffffffffffffffffffffffffffffffffff16815260200190815260200160002060009054906101000a900460ff16905090565b6000803373ffffffffffffffffffffffffffffffffffffffff1673ffffffffffffffffffffffffffffffffffffffff16815260200190815260200160002060009054906101000a900460ff1615610142576040517f08c379a000000000000000000000000000000000000000000000000000000000815260040161013990610291565b60405180910390fd5b6001339080600181540180825580915050600190039060005260206000200160009091909190916101000a81548173ffffffffffffffffffffffffffffffffffffffff021916908373ffffffffffffffffffffffffffffffffffffffff16021790555060016000803373ffffffffffffffffffffffffffffffffffffffff1673ffffffffffffffffffffffffffffffffffffffff16815260200190815260200160002060006101000a81548160ff021916908315150217905550565b60008115159050919050565b610213816101fe565b82525050565b600060208201905061022e600083018461020a565b92915050565b600082825260208201905092915050565b7f5573657220616c72656164792065786973740000000000000000000000000000600082015250565b600061027b601283610234565b915061028682610245565b602082019050919050565b600060208201905081810360008301526102aa8161026e565b905091905056fea26469706673582212206dd7dd69e9b3c4abe40c677c9161a75e5c370f7676827b7138aa4bf612c3fd9164736f6c634300080b0033",
  "immutableReferences": {},
  "source": "// SPDX-License-Identifier: MIT\r\npragma solidity >=0.4.22 <0.9.0;\r\n\r\ncontract AuthVerifier{\r\n\r\n    mapping (address => bool) verifierExist;\r\n    address[] verifiers;\r\n\r\n    function addVerifier() external {\r\n\r\n        require (!verifierExist[msg.sender], \"User already exist\");\r\n        verifiers.push(msg.sender);\r\n        verifierExist[msg.sender] = true;\r\n\r\n    }\r\n\r\n    function getVerifierExist() external view returns(bool){\r\n        return verifierExist[msg.sender];\r\n    }   \r\n\r\n\r\n\r\n\r\n}",
  "sourcePath": "E:\\Web3 Development\\ethereum\\test_auth\\contracts\\AuthVerifier.sol",
  "compiler": {
    "name": "solc",
    "version": "0.8.11+commit.d7f03943.Emscripten.clang"
  },
  "schemaVersion": "3.4.4",
  "updatedAt": "2022-10-31T19:51:30.429Z",
  "networkType": "ethereum",
  "devdoc": {
    "kind": "dev",
    "methods": {},
    "version": 1
  },
  "userdoc": {
    "kind": "user",
    "methods": {},
    "version": 1
  }
}