{
  "contractName": "AuthVerifier",
  "abi": [
    {
      "inputs": [
        {
          "internalType": "address",
          "name": "",
          "type": "address"
        }
      ],
      "name": "eligibleServices",
      "outputs": [
        {
          "internalType": "address",
          "name": "owner",
          "type": "address"
        },
        {
          "internalType": "bool",
          "name": "accountCreation",
          "type": "bool"
        },
        {
          "internalType": "bool",
          "name": "bankLaon",
          "type": "bool"
        },
        {
          "internalType": "bool",
          "name": "cardRequest",
          "type": "bool"
        }
      ],
      "stateMutability": "view",
      "type": "function",
      "constant": true
    },
    {
      "inputs": [
        {
          "internalType": "address",
          "name": "",
          "type": "address"
        }
      ],
      "name": "verifierExist",
      "outputs": [
        {
          "internalType": "bool",
          "name": "",
          "type": "bool"
        }
      ],
      "stateMutability": "view",
      "type": "function",
      "constant": true
    },
    {
      "inputs": [
        {
          "internalType": "uint256",
          "name": "",
          "type": "uint256"
        }
      ],
      "name": "verifiers",
      "outputs": [
        {
          "internalType": "address",
          "name": "",
          "type": "address"
        }
      ],
      "stateMutability": "view",
      "type": "function",
      "constant": true
    },
    {
      "inputs": [
        {
          "internalType": "bool",
          "name": "_accountCreation",
          "type": "bool"
        },
        {
          "internalType": "bool",
          "name": "_bankLoan",
          "type": "bool"
        },
        {
          "internalType": "bool",
          "name": "_cardRequest",
          "type": "bool"
        }
      ],
      "name": "addVerifier",
      "outputs": [],
      "stateMutability": "nonpayable",
      "type": "function"
    },
    {
      "inputs": [],
      "name": "getVerifierExist",
      "outputs": [
        {
          "internalType": "bool",
          "name": "",
          "type": "bool"
        }
      ],
      "stateMutability": "view",
      "type": "function",
      "constant": true
    },
    {
      "inputs": [
        {
          "internalType": "bool",
          "name": "_accountCreation",
          "type": "bool"
        },
        {
          "internalType": "bool",
          "name": "_bankLoan",
          "type": "bool"
        },
        {
          "internalType": "bool",
          "name": "_cardRequest",
          "type": "bool"
        }
      ],
      "name": "updateServices",
      "outputs": [],
      "stateMutability": "nonpayable",
      "type": "function"
    },
    {
      "inputs": [
        {
          "internalType": "address",
          "name": "_address",
          "type": "address"
        }
      ],
      "name": "isAccountCreationVerifiable",
      "outputs": [
        {
          "internalType": "bool",
          "name": "",
          "type": "bool"
        }
      ],
      "stateMutability": "view",
      "type": "function",
      "constant": true
    },
    {
      "inputs": [
        {
          "internalType": "address",
          "name": "_address",
          "type": "address"
        }
      ],
      "name": "isBankLaonVerifiable",
      "outputs": [
        {
          "internalType": "bool",
          "name": "",
          "type": "bool"
        }
      ],
      "stateMutability": "view",
      "type": "function",
      "constant": true
    },
    {
      "inputs": [
        {
          "internalType": "address",
          "name": "_address",
          "type": "address"
        }
      ],
      "name": "isCardRequestVerifiable",
      "outputs": [
        {
          "internalType": "bool",
          "name": "",
          "type": "bool"
        }
      ],
      "stateMutability": "view",
      "type": "function",
      "constant": true
    }
  ],
  "bytecode": "0x608060405234801561001057600080fd5b50610e55806100206000396000f3fe608060405234801561001057600080fd5b50600436106100935760003560e01c8063587404eb11610066578063587404eb1461011e5780638a464d3f14610151578063ac1eff6814610181578063bfea34bd146101b1578063fade2b65146101e157610093565b8063076c642414610098578063244edde2146100b65780634599fd7d146100e657806347d32ac714610102575b600080fd5b6100a0610211565b6040516100ad9190610ace565b60405180910390f35b6100d060048036038101906100cb9190610b4c565b610264565b6040516100dd9190610ace565b60405180910390f35b61010060048036038101906100fb9190610ba5565b610284565b005b61011c60048036038101906101179190610ba5565b610573565b005b61013860048036038101906101339190610b4c565b6108f2565b6040516101489493929190610c07565b60405180910390f35b61016b60048036038101906101669190610b4c565b610969565b6040516101789190610ace565b60405180910390f35b61019b60048036038101906101969190610c82565b6109c2565b6040516101a89190610caf565b60405180910390f35b6101cb60048036038101906101c69190610b4c565b610a01565b6040516101d89190610ace565b60405180910390f35b6101fb60048036038101906101f69190610b4c565b610a5a565b6040516102089190610ace565b60405180910390f35b60008060003373ffffffffffffffffffffffffffffffffffffffff1673ffffffffffffffffffffffffffffffffffffffff16815260200190815260200160002060009054906101000a900460ff16905090565b60006020528060005260406000206000915054906101000a900460ff1681565b6000803373ffffffffffffffffffffffffffffffffffffffff1673ffffffffffffffffffffffffffffffffffffffff16815260200190815260200160002060009054906101000a900460ff1615610310576040517f08c379a000000000000000000000000000000000000000000000000000000000815260040161030790610d27565b60405180910390fd5b6001339080600181540180825580915050600190039060005260206000200160009091909190916101000a81548173ffffffffffffffffffffffffffffffffffffffff021916908373ffffffffffffffffffffffffffffffffffffffff16021790555060016000803373ffffffffffffffffffffffffffffffffffffffff1673ffffffffffffffffffffffffffffffffffffffff16815260200190815260200160002060006101000a81548160ff02191690831515021790555033600260003373ffffffffffffffffffffffffffffffffffffffff1673ffffffffffffffffffffffffffffffffffffffff16815260200190815260200160002060000160006101000a81548173ffffffffffffffffffffffffffffffffffffffff021916908373ffffffffffffffffffffffffffffffffffffffff16021790555082156104ac5782600260003373ffffffffffffffffffffffffffffffffffffffff1673ffffffffffffffffffffffffffffffffffffffff16815260200190815260200160002060000160146101000a81548160ff0219169083151502179055505b811561050d5781600260003373ffffffffffffffffffffffffffffffffffffffff1673ffffffffffffffffffffffffffffffffffffffff16815260200190815260200160002060000160156101000a81548160ff0219169083151502179055505b801561056e5780600260003373ffffffffffffffffffffffffffffffffffffffff1673ffffffffffffffffffffffffffffffffffffffff16815260200190815260200160002060000160166101000a81548160ff0219169083151502179055505b505050565b6000803373ffffffffffffffffffffffffffffffffffffffff1673ffffffffffffffffffffffffffffffffffffffff16815260200190815260200160002060009054906101000a900460ff166105fe576040517f08c379a00000000000000000000000000000000000000000000000000000000081526004016105f590610d93565b60405180910390fd5b3373ffffffffffffffffffffffffffffffffffffffff16600260003373ffffffffffffffffffffffffffffffffffffffff1673ffffffffffffffffffffffffffffffffffffffff16815260200190815260200160002060000160009054906101000a900473ffffffffffffffffffffffffffffffffffffffff1673ffffffffffffffffffffffffffffffffffffffff16146106ce576040517f08c379a00000000000000000000000000000000000000000000000000000000081526004016106c590610dff565b60405180910390fd5b821515600260003373ffffffffffffffffffffffffffffffffffffffff1673ffffffffffffffffffffffffffffffffffffffff16815260200190815260200160002060000160149054906101000a900460ff161515146107835782600260003373ffffffffffffffffffffffffffffffffffffffff1673ffffffffffffffffffffffffffffffffffffffff16815260200190815260200160002060000160146101000a81548160ff0219169083151502179055505b811515600260003373ffffffffffffffffffffffffffffffffffffffff1673ffffffffffffffffffffffffffffffffffffffff16815260200190815260200160002060000160159054906101000a900460ff161515146108385781600260003373ffffffffffffffffffffffffffffffffffffffff1673ffffffffffffffffffffffffffffffffffffffff16815260200190815260200160002060000160156101000a81548160ff0219169083151502179055505b801515600260003373ffffffffffffffffffffffffffffffffffffffff1673ffffffffffffffffffffffffffffffffffffffff16815260200190815260200160002060000160169054906101000a900460ff161515146108ed5780600260003373ffffffffffffffffffffffffffffffffffffffff1673ffffffffffffffffffffffffffffffffffffffff16815260200190815260200160002060000160166101000a81548160ff0219169083151502179055505b505050565b60026020528060005260406000206000915090508060000160009054906101000a900473ffffffffffffffffffffffffffffffffffffffff16908060000160149054906101000a900460ff16908060000160159054906101000a900460ff16908060000160169054906101000a900460ff16905084565b6000600260008373ffffffffffffffffffffffffffffffffffffffff1673ffffffffffffffffffffffffffffffffffffffff16815260200190815260200160002060000160149054906101000a900460ff169050919050565b600181815481106109d257600080fd5b906000526020600020016000915054906101000a900473ffffffffffffffffffffffffffffffffffffffff1681565b6000600260008373ffffffffffffffffffffffffffffffffffffffff1673ffffffffffffffffffffffffffffffffffffffff16815260200190815260200160002060000160159054906101000a900460ff169050919050565b6000600260008373ffffffffffffffffffffffffffffffffffffffff1673ffffffffffffffffffffffffffffffffffffffff16815260200190815260200160002060000160169054906101000a900460ff169050919050565b60008115159050919050565b610ac881610ab3565b82525050565b6000602082019050610ae36000830184610abf565b92915050565b600080fd5b600073ffffffffffffffffffffffffffffffffffffffff82169050919050565b6000610b1982610aee565b9050919050565b610b2981610b0e565b8114610b3457600080fd5b50565b600081359050610b4681610b20565b92915050565b600060208284031215610b6257610b61610ae9565b5b6000610b7084828501610b37565b91505092915050565b610b8281610ab3565b8114610b8d57600080fd5b50565b600081359050610b9f81610b79565b92915050565b600080600060608486031215610bbe57610bbd610ae9565b5b6000610bcc86828701610b90565b9350506020610bdd86828701610b90565b9250506040610bee86828701610b90565b9150509250925092565b610c0181610b0e565b82525050565b6000608082019050610c1c6000830187610bf8565b610c296020830186610abf565b610c366040830185610abf565b610c436060830184610abf565b95945050505050565b6000819050919050565b610c5f81610c4c565b8114610c6a57600080fd5b50565b600081359050610c7c81610c56565b92915050565b600060208284031215610c9857610c97610ae9565b5b6000610ca684828501610c6d565b91505092915050565b6000602082019050610cc46000830184610bf8565b92915050565b600082825260208201905092915050565b7f5573657220616c72656164792065786973740000000000000000000000000000600082015250565b6000610d11601283610cca565b9150610d1c82610cdb565b602082019050919050565b60006020820190508181036000830152610d4081610d04565b9050919050565b7f4e6f7420616e20456c696769626c652076657269666965720000000000000000600082015250565b6000610d7d601883610cca565b9150610d8882610d47565b602082019050919050565b60006020820190508181036000830152610dac81610d70565b9050919050565b7f4163636573732044656e69656421000000000000000000000000000000000000600082015250565b6000610de9600e83610cca565b9150610df482610db3565b602082019050919050565b60006020820190508181036000830152610e1881610ddc565b905091905056fea26469706673582212205865a24bc9746039745c09f3d422d9a1092bd8bf0bc7e3b3829f027700aba2c464736f6c634300080b0033",
  "immutableReferences": {},
  "source": "// SPDX-License-Identifier: MIT\npragma solidity >=0.4.22 <0.9.0;\n\ncontract AuthVerifier{\n\n    struct Services{\n        address owner;\n        bool accountCreation;\n        bool bankLaon;\n        bool cardRequest;\n    }\n\n    mapping (address => bool) public verifierExist;\n    address[] public verifiers;\n    mapping (address => Services) public eligibleServices;\n\n    modifier eligible {\n        require(verifierExist[msg.sender], \"Not an Eligible verifier\");\n        _;\n    }\n\n    modifier onlyOwner {\n        require(eligibleServices[msg.sender].owner == msg.sender, \"Access Denied!\");\n        _;\n    }\n\n    function addVerifier(bool _accountCreation, bool _bankLoan, bool _cardRequest) external {\n\n        require (!verifierExist[msg.sender], \"User already exist\");\n        verifiers.push(msg.sender);\n        verifierExist[msg.sender] = true;\n\n        eligibleServices[msg.sender].owner = msg.sender;\n\n        if(_accountCreation){\n            eligibleServices[msg.sender].accountCreation = _accountCreation;\n        }\n        \n        if(_bankLoan){\n            eligibleServices[msg.sender].bankLaon = _bankLoan;\n        }\n        \n        if(_cardRequest){\n             eligibleServices[msg.sender].cardRequest = _cardRequest;\n        }\n       \n\n    }\n\n    function getVerifierExist() external view returns(bool){\n        return verifierExist[msg.sender];\n    }   \n\n\n    function updateServices(bool _accountCreation, bool _bankLoan, bool _cardRequest) external eligible onlyOwner {\n\n        if(eligibleServices[msg.sender].accountCreation != _accountCreation){\n            eligibleServices[msg.sender].accountCreation = _accountCreation;\n        }\n\n        if(eligibleServices[msg.sender].bankLaon != _bankLoan){\n            eligibleServices[msg.sender].bankLaon = _bankLoan;\n        }\n\n        if(eligibleServices[msg.sender].cardRequest != _cardRequest){\n            eligibleServices[msg.sender].cardRequest = _cardRequest;\n        }\n\n        \n\n    }\n\n    function isAccountCreationVerifiable (address _address) view external returns(bool){\n        return eligibleServices[_address].accountCreation;\n    }\n\n    function isBankLaonVerifiable (address _address) view external returns(bool){\n        return eligibleServices[_address].bankLaon;\n    }\n\n    function isCardRequestVerifiable (address _address) view external  returns(bool){\n        return eligibleServices[_address].cardRequest;\n    }\n\n\n}",
  "sourcePath": "/Users/jathavanmahendrarajah/Documents/GitHub/test_auth/contracts/AuthVerifier.sol",
  "compiler": {
    "name": "solc",
    "version": "0.8.11+commit.d7f03943.Emscripten.clang"
  },
  "schemaVersion": "3.4.10",
  "updatedAt": "2022-11-10T07:09:50.760Z",
  "networkType": "ethereum",
  "devdoc": {
    "kind": "dev",
    "methods": {},
    "version": 1
  },
  "userdoc": {
    "kind": "user",
    "methods": {},
    "version": 1
  }
}